{
  "_format": "hh-sol-artifact-1",
  "contractName": "PoWRegistry",
  "sourceName": "contracts/PoWRegistry.sol",
  "abi": [
    {
      "anonymous": false,
      "inputs": [
        {
          "indexed": true,
          "internalType": "address",
          "name": "user",
          "type": "address"
        },
        {
          "indexed": true,
          "internalType": "bytes32",
          "name": "artifactHash",
          "type": "bytes32"
        },
        {
          "indexed": false,
          "internalType": "uint256",
          "name": "timestamp",
          "type": "uint256"
        }
      ],
      "name": "SnapshotAnchored",
      "type": "event"
    },
    {
      "inputs": [
        {
          "internalType": "bytes32",
          "name": "artifactHash",
          "type": "bytes32"
        },
        {
          "internalType": "uint256[]",
          "name": "skillScores",
          "type": "uint256[]"
        },
        {
          "internalType": "address",
          "name": "githubIdentity",
          "type": "address"
        }
      ],
      "name": "anchorSnapshot",
      "outputs": [],
      "stateMutability": "nonpayable",
      "type": "function"
    },
    {
      "inputs": [
        {
          "internalType": "address",
          "name": "user",
          "type": "address"
        }
      ],
      "name": "getSkillScores",
      "outputs": [
        {
          "internalType": "uint256[]",
          "name": "",
          "type": "uint256[]"
        }
      ],
      "stateMutability": "view",
      "type": "function"
    },
    {
      "inputs": [
        {
          "internalType": "address",
          "name": "user",
          "type": "address"
        }
      ],
      "name": "getSnapshot",
      "outputs": [
        {
          "components": [
            {
              "internalType": "bytes32",
              "name": "artifactHash",
              "type": "bytes32"
            },
            {
              "internalType": "uint256[]",
              "name": "skillScores",
              "type": "uint256[]"
            },
            {
              "internalType": "address",
              "name": "githubIdentity",
              "type": "address"
            },
            {
              "internalType": "uint256",
              "name": "timestamp",
              "type": "uint256"
            },
            {
              "internalType": "bool",
              "name": "exists",
              "type": "bool"
            }
          ],
          "internalType": "struct PoWRegistry.Snapshot",
          "name": "",
          "type": "tuple"
        }
      ],
      "stateMutability": "view",
      "type": "function"
    },
    {
      "inputs": [
        {
          "internalType": "address",
          "name": "",
          "type": "address"
        }
      ],
      "name": "snapshots",
      "outputs": [
        {
          "internalType": "bytes32",
          "name": "artifactHash",
          "type": "bytes32"
        },
        {
          "internalType": "address",
          "name": "githubIdentity",
          "type": "address"
        },
        {
          "internalType": "uint256",
          "name": "timestamp",
          "type": "uint256"
        },
        {
          "internalType": "bool",
          "name": "exists",
          "type": "bool"
        }
      ],
      "stateMutability": "view",
      "type": "function"
    },
    {
      "inputs": [
        {
          "internalType": "bytes32",
          "name": "",
          "type": "bytes32"
        }
      ],
      "name": "verifiedHashes",
      "outputs": [
        {
          "internalType": "bool",
          "name": "",
          "type": "bool"
        }
      ],
      "stateMutability": "view",
      "type": "function"
    },
    {
      "inputs": [
        {
          "internalType": "bytes32",
          "name": "hash",
          "type": "bytes32"
        }
      ],
      "name": "verifySnapshot",
      "outputs": [
        {
          "internalType": "bool",
          "name": "",
          "type": "bool"
        }
      ],
      "stateMutability": "view",
      "type": "function"
    }
  ],
  "bytecode": "0x608060405234801561001057600080fd5b5061085a806100206000396000f3fe608060405234801561001057600080fd5b50600436106100625760003560e01c8063215702561461006757806334b3081f14610090578063374146e2146100fc5780636a6dad541461012f57806384a0e2e914610144578063be6b80b314610167575b600080fd5b61007a610075366004610611565b610187565b6040516100879190610633565b60405180910390f35b6100d261009e366004610611565b600060208190529081526040902080546002820154600383015460049093015491926001600160a01b039091169160ff1684565b604080519485526001600160a01b0390931660208501529183015215156060820152608001610087565b61011f61010a3660046106c1565b60016020526000908152604090205460ff1681565b6040519015158152602001610087565b61014261013d3660046106f0565b6102c2565b005b61011f6101523660046106c1565b60009081526001602052604090205460ff1690565b61017a610175366004610611565b6104c8565b60405161008791906107ca565b6040805160a081018252600080825260606020808401829052838501839052908301829052608083018290526001600160a01b0385168252819052919091206004015460ff166102125760405162461bcd60e51b8152602060048201526011602482015270139bc81cdb985c1cda1bdd08199bdd5b99607a1b60448201526064015b60405180910390fd5b6001600160a01b03821660009081526020818152604091829020825160a081018452815481526001820180548551818602810186019096528086529194929385810193929083018282801561028657602002820191906000526020600020905b815481526020019060010190808311610272575b505050918352505060028201546001600160a01b031660208201526003820154604082015260049091015460ff16151560609091015292915050565b826103075760405162461bcd60e51b8152602060048201526015602482015274092dcecc2d8d2c840c2e4e8d2ccc2c6e840d0c2e6d605b1b6044820152606401610209565b60008251116103505760405162461bcd60e51b815260206004820152601560248201527414dada5b1b081cd8dbdc995cc81c995c5d5a5c9959605a1b6044820152606401610209565b60005b82518110156103c45760648382815181106103705761037061080e565b602002602001015111156103bc5760405162461bcd60e51b8152602060048201526013602482015272496e76616c696420736b696c6c2073636f726560681b6044820152606401610209565b600101610353565b506040805160a08101825284815260208082018581526001600160a01b0385168385015242606084015260016080840181905233600090815280845294909420835181559051805193948594929361042193918501920190610595565b506040828101516002830180546001600160a01b039092166001600160a01b0319909216919091179055606083015160038301556080909201516004909101805491151560ff1992831617905560008681526001602081905290839020805490921617905551849033907f460add4d0655172e167a1766013190ebf36bb33077e5a1c5c3a5969983cf2329906104ba9042815260200190565b60405180910390a350505050565b6001600160a01b03811660009081526020819052604090206004015460609060ff1661052a5760405162461bcd60e51b8152602060048201526011602482015270139bc81cdb985c1cda1bdd08199bdd5b99607a1b6044820152606401610209565b6001600160a01b038216600090815260208181526040918290206001018054835181840281018401909452808452909183018282801561058957602002820191906000526020600020905b815481526020019060010190808311610575575b50505050509050919050565b8280548282559060005260206000209081019282156105d0579160200282015b828111156105d05782518255916020019190600101906105b5565b506105dc9291506105e0565b5090565b5b808211156105dc57600081556001016105e1565b80356001600160a01b038116811461060c57600080fd5b919050565b60006020828403121561062357600080fd5b61062c826105f5565b9392505050565b60208082528251828201528281015160a06040840152805160c0840181905260009291820190839060e08601905b808310156106815783518252928401926001929092019190840190610661565b5060408701516001600160a01b0381166060880152935060608701516080870152608087015193506106b760a087018515159052565b9695505050505050565b6000602082840312156106d357600080fd5b5035919050565b634e487b7160e01b600052604160045260246000fd5b60008060006060848603121561070557600080fd5b8335925060208085013567ffffffffffffffff8082111561072557600080fd5b818701915087601f83011261073957600080fd5b81358181111561074b5761074b6106da565b8060051b604051601f19603f83011681018181108582111715610770576107706106da565b60405291825284820192508381018501918a83111561078e57600080fd5b938501935b828510156107ac57843584529385019392850192610793565b8097505050505050506107c1604085016105f5565b90509250925092565b6020808252825182820181905260009190848201906040850190845b81811015610802578351835292840192918401916001016107e6565b50909695505050505050565b634e487b7160e01b600052603260045260246000fdfea264697066735822122020c02d91df8ced9b6d3769c516b27484b652b7b68a6520c024466830bae6866b64736f6c63430008180033",
  "linkReferences": {},
  "deployedLinkReferences": {}
}